{
  "contractName": "SupplyChain",
  "abi": [
    {
      "inputs": [],
      "name": "productCount",
      "outputs": [
        {
          "internalType": "uint256",
          "name": "",
          "type": "uint256"
        }
      ],
      "stateMutability": "view",
      "type": "function",
      "constant": true
    },
    {
      "inputs": [
        {
          "internalType": "uint256",
          "name": "",
          "type": "uint256"
        }
      ],
      "name": "products",
      "outputs": [
        {
          "internalType": "uint256",
          "name": "id",
          "type": "uint256"
        },
        {
          "internalType": "string",
          "name": "name",
          "type": "string"
        },
        {
          "internalType": "address",
          "name": "owner",
          "type": "address"
        }
      ],
      "stateMutability": "view",
      "type": "function",
      "constant": true
    },
    {
      "inputs": [
        {
          "internalType": "string",
          "name": "_name",
          "type": "string"
        }
      ],
      "name": "addProduct",
      "outputs": [],
      "stateMutability": "nonpayable",
      "type": "function"
    }
  ],
  "bytecode": "0x608060405234801561001057600080fd5b506106f8806100206000396000f3fe608060405234801561001057600080fd5b50600436106100415760003560e01c80637acc0b2014610046578063dfe00c5114610078578063e0f6ef8714610094575b600080fd5b610060600480360381019061005b91906103be565b6100b2565b60405161006f93929190610459565b60405180910390f35b610092600480360381019061008d919061037d565b610184565b005b61009c610257565b6040516100a9919061043e565b60405180910390f35b60006020528060005260406000206000915090508060000154908060010180546100db90610592565b80601f016020809104026020016040519081016040528092919081815260200182805461010790610592565b80156101545780601f1061012957610100808354040283529160200191610154565b820191906000526020600020905b81548152906001019060200180831161013757829003601f168201915b5050505050908060020160009054906101000a900473ffffffffffffffffffffffffffffffffffffffff16905083565b60016000815480929190610197906105c4565b9190505550604051806060016040528060015481526020018281526020013373ffffffffffffffffffffffffffffffffffffffff16815250600080600154815260200190815260200160002060008201518160000155602082015181600101908051906020019061020992919061025d565b5060408201518160020160006101000a81548173ffffffffffffffffffffffffffffffffffffffff021916908373ffffffffffffffffffffffffffffffffffffffff16021790555090505050565b60015481565b82805461026990610592565b90600052602060002090601f01602090048101928261028b57600085556102d2565b82601f106102a457805160ff19168380011785556102d2565b828001600101855582156102d2579182015b828111156102d15782518255916020019190600101906102b6565b5b5090506102df91906102e3565b5090565b5b808211156102fc5760008160009055506001016102e4565b5090565b600061031361030e846104c8565b610497565b90508281526020810184848401111561032b57600080fd5b610336848285610550565b509392505050565b600082601f83011261034f57600080fd5b813561035f848260208601610300565b91505092915050565b600081359050610377816106ab565b92915050565b60006020828403121561038f57600080fd5b600082013567ffffffffffffffff8111156103a957600080fd5b6103b58482850161033e565b91505092915050565b6000602082840312156103d057600080fd5b60006103de84828501610368565b91505092915050565b6103f081610514565b82525050565b6000610401826104f8565b61040b8185610503565b935061041b81856020860161055f565b6104248161069a565b840191505092915050565b61043881610546565b82525050565b6000602082019050610453600083018461042f565b92915050565b600060608201905061046e600083018661042f565b818103602083015261048081856103f6565b905061048f60408301846103e7565b949350505050565b6000604051905081810181811067ffffffffffffffff821117156104be576104bd61066b565b5b8060405250919050565b600067ffffffffffffffff8211156104e3576104e261066b565b5b601f19601f8301169050602081019050919050565b600081519050919050565b600082825260208201905092915050565b600061051f82610526565b9050919050565b600073ffffffffffffffffffffffffffffffffffffffff82169050919050565b6000819050919050565b82818337600083830152505050565b60005b8381101561057d578082015181840152602081019050610562565b8381111561058c576000848401525b50505050565b600060028204905060018216806105aa57607f821691505b602082108114156105be576105bd61063c565b5b50919050565b60006105cf82610546565b91507fffffffffffffffffffffffffffffffffffffffffffffffffffffffffffffffff8214156106025761060161060d565b5b600182019050919050565b7f4e487b7100000000000000000000000000000000000000000000000000000000600052601160045260246000fd5b7f4e487b7100000000000000000000000000000000000000000000000000000000600052602260045260246000fd5b7f4e487b7100000000000000000000000000000000000000000000000000000000600052604160045260246000fd5b6000601f19601f8301169050919050565b6106b481610546565b81146106bf57600080fd5b5056fea2646970667358221220b191dfde67f96f92ee25b2829e4b974a4621ddd8ee08e5faafc0f045a90557c864736f6c63430008000033",
  "immutableReferences": {},
  "source": "// SPDX-License-Identifier: MIT\r\npragma solidity 0.8.0;\r\n\r\ncontract SupplyChain {\r\n    struct Product {\r\n        uint id;\r\n        string name;\r\n        address owner;\r\n    }\r\n\r\n    mapping(uint => Product) public products;\r\n    uint public productCount;\r\n\r\n    function addProduct(string memory _name) public {\r\n        productCount++;\r\n        products[productCount] = Product(productCount, _name, msg.sender);\r\n    }\r\n}\r\n\r\n",
  "sourcePath": "C:\\Users\\fredt\\supply-chain-optimization\\contracts\\SupplyChain.sol",
  "compiler": {
    "name": "solc",
    "version": "0.8.0+commit.c7dfd78e.Emscripten.clang"
  },
  "schemaVersion": "3.4.16",
  "updatedAt": "2024-02-20T21:14:12.502Z",
  "networkType": "ethereum",
  "devdoc": {
    "kind": "dev",
    "methods": {},
    "version": 1
  },
  "userdoc": {
    "kind": "user",
    "methods": {},
    "version": 1
  }
}